{
  "contractName": "Bank",
  "abi": [
    {
      "inputs": [
        {
          "internalType": "contract Token",
          "name": "_token",
          "type": "address"
        }
      ],
      "stateMutability": "nonpayable",
      "type": "constructor"
    },
    {
      "inputs": [
        {
          "internalType": "address",
          "name": "",
          "type": "address"
        }
      ],
      "name": "doubleInterestDeposit",
      "outputs": [
        {
          "internalType": "uint256",
          "name": "clientsBalanceBNB",
          "type": "uint256"
        },
        {
          "internalType": "uint256",
          "name": "depositTimeStamp",
          "type": "uint256"
        },
        {
          "internalType": "uint256",
          "name": "interest",
          "type": "uint256"
        },
        {
          "internalType": "bool",
          "name": "isDeposited",
          "type": "bool"
        }
      ],
      "stateMutability": "view",
      "type": "function",
      "constant": true
    },
    {
      "inputs": [
        {
          "internalType": "address",
          "name": "",
          "type": "address"
        }
      ],
      "name": "regularDeposit",
      "outputs": [
        {
          "internalType": "uint256",
          "name": "clientsBalanceBNB",
          "type": "uint256"
        },
        {
          "internalType": "uint256",
          "name": "depositTimeStamp",
          "type": "uint256"
        },
        {
          "internalType": "uint256",
          "name": "interest",
          "type": "uint256"
        },
        {
          "internalType": "bool",
          "name": "isDeposited",
          "type": "bool"
        }
      ],
      "stateMutability": "view",
      "type": "function",
      "constant": true
    },
    {
      "inputs": [],
      "name": "deposit",
      "outputs": [],
      "stateMutability": "payable",
      "type": "function",
      "payable": true
    },
    {
      "inputs": [],
      "name": "depositDoubleInteresr",
      "outputs": [],
      "stateMutability": "payable",
      "type": "function",
      "payable": true
    },
    {
      "inputs": [],
      "name": "withdraw",
      "outputs": [],
      "stateMutability": "payable",
      "type": "function",
      "payable": true
    },
    {
      "inputs": [],
      "name": "withdrawDoubleInterest",
      "outputs": [],
      "stateMutability": "payable",
      "type": "function",
      "payable": true
    },
    {
      "inputs": [],
      "name": "getClientBalanceBNB",
      "outputs": [
        {
          "internalType": "uint256",
          "name": "",
          "type": "uint256"
        }
      ],
      "stateMutability": "view",
      "type": "function",
      "constant": true
    },
    {
      "inputs": [],
      "name": "getClientBalanceBNBDoubleInterest",
      "outputs": [
        {
          "internalType": "uint256",
          "name": "",
          "type": "uint256"
        }
      ],
      "stateMutability": "view",
      "type": "function",
      "constant": true
    },
    {
      "inputs": [],
      "name": "getClientBalanceBMIW",
      "outputs": [
        {
          "internalType": "uint256",
          "name": "",
          "type": "uint256"
        }
      ],
      "stateMutability": "view",
      "type": "function",
      "constant": true
    },
    {
      "inputs": [],
      "name": "getClientBalanceBMIWDoubleInterest",
      "outputs": [
        {
          "internalType": "uint256",
          "name": "",
          "type": "uint256"
        }
      ],
      "stateMutability": "view",
      "type": "function",
      "constant": true
    },
    {
      "inputs": [],
      "name": "calculateBMIW",
      "outputs": [
        {
          "internalType": "uint256",
          "name": "",
          "type": "uint256"
        }
      ],
      "stateMutability": "view",
      "type": "function",
      "constant": true
    },
    {
      "inputs": [],
      "name": "calculateBMIWDoubleInterest",
      "outputs": [
        {
          "internalType": "uint256",
          "name": "",
          "type": "uint256"
        }
      ],
      "stateMutability": "view",
      "type": "function",
      "constant": true
    },
    {
      "inputs": [
        {
          "internalType": "uint256",
          "name": "amountOfBMIW",
          "type": "uint256"
        }
      ],
      "name": "buyBMIW",
      "outputs": [
        {
          "internalType": "bool",
          "name": "",
          "type": "bool"
        }
      ],
      "stateMutability": "payable",
      "type": "function",
      "payable": true
    },
    {
      "inputs": [],
      "name": "getBalance",
      "outputs": [
        {
          "internalType": "uint256",
          "name": "",
          "type": "uint256"
        }
      ],
      "stateMutability": "view",
      "type": "function",
      "constant": true
    },
    {
      "inputs": [],
      "name": "getBNBFromSales",
      "outputs": [
        {
          "internalType": "uint256",
          "name": "",
          "type": "uint256"
        }
      ],
      "stateMutability": "view",
      "type": "function",
      "constant": true
    },
    {
      "inputs": [],
      "name": "getBMIWPrice",
      "outputs": [
        {
          "internalType": "uint256",
          "name": "",
          "type": "uint256"
        }
      ],
      "stateMutability": "view",
      "type": "function",
      "constant": true
    },
    {
      "inputs": [],
      "name": "getTotalBMIW",
      "outputs": [
        {
          "internalType": "uint256",
          "name": "",
          "type": "uint256"
        }
      ],
      "stateMutability": "view",
      "type": "function",
      "constant": true
    },
    {
      "inputs": [
        {
          "internalType": "uint256",
          "name": "amountOfBMIW",
          "type": "uint256"
        }
      ],
      "name": "sellBMIW",
      "outputs": [
        {
          "internalType": "bool",
          "name": "",
          "type": "bool"
        }
      ],
      "stateMutability": "nonpayable",
      "type": "function"
    }
  ],
  "bytecode": "0x6080604052600060035560006004553480156200001b57600080fd5b5060405162001e7f38038062001e7f833981810160405281019062000041919062000106565b806000806101000a81548173ffffffffffffffffffffffffffffffffffffffff021916908373ffffffffffffffffffffffffffffffffffffffff1602179055505062000138565b600080fd5b600073ffffffffffffffffffffffffffffffffffffffff82169050919050565b6000620000ba826200008d565b9050919050565b6000620000ce82620000ad565b9050919050565b620000e081620000c1565b8114620000ec57600080fd5b50565b6000815190506200010081620000d5565b92915050565b6000602082840312156200011f576200011e62000088565b5b60006200012f84828501620000ef565b91505092915050565b611d3780620001486000396000f3fe6080604052600436106101095760003560e01c8063baa8fda411610095578063d5a80e0211610064578063d5a80e021461031b578063e125e30414610346578063f5bdd95414610350578063fb97c5641461037b578063ffd6ca83146103a657610109565b8063baa8fda414610290578063bf596d5f146102bb578063c6b42d57146102e6578063d0e30db01461031157610109565b80633ccfd60b116100dc5780633ccfd60b146101c05780635b2f664d146101ca5780637e0f65e2146101fa578063b22b51bf1461023a578063b67bc2ec1461026557610109565b806307d406391461010e57806312065fe01461014e57806318f82895146101795780631f08cd5a146101b6575b600080fd5b34801561011a57600080fd5b506101356004803603810190610130919061164f565b6103d1565b60405161014594939291906116b0565b60405180910390f35b34801561015a57600080fd5b5061016361040e565b60405161017091906116f5565b60405180910390f35b34801561018557600080fd5b506101a0600480360381019061019b919061173c565b61042d565b6040516101ad9190611769565b60405180910390f35b6101be6106b7565b005b6101c861083d565b005b6101e460048036038101906101df919061173c565b610b44565b6040516101f19190611769565b60405180910390f35b34801561020657600080fd5b50610221600480360381019061021c919061164f565b610c97565b60405161023194939291906116b0565b60405180910390f35b34801561024657600080fd5b5061024f610cd4565b60405161025c91906116f5565b60405180910390f35b34801561027157600080fd5b5061027a610d30565b60405161028791906116f5565b60405180910390f35b34801561029c57600080fd5b506102a5610d3a565b6040516102b291906116f5565b60405180910390f35b3480156102c757600080fd5b506102d0610e68565b6040516102dd91906116f5565b60405180910390f35b3480156102f257600080fd5b506102fb610ec4565b60405161030891906116f5565b60405180910390f35b610319610ece565b005b34801561032757600080fd5b50610330611053565b60405161033d91906116f5565b60405180910390f35b61034e611181565b005b34801561035c57600080fd5b5061036561151a565b60405161037291906116f5565b60405180910390f35b34801561038757600080fd5b50610390611564565b60405161039d91906116f5565b60405180910390f35b3480156103b257600080fd5b506103bb6115a2565b6040516103c891906116f5565b60405180910390f35b60026020528060005260406000206000915090508060000154908060010154908060020154908060030160009054906101000a900460ff16905084565b60003073ffffffffffffffffffffffffffffffffffffffff1631905090565b6000670de0b6b3a76400008261044391906117b3565b60008054906101000a900473ffffffffffffffffffffffffffffffffffffffff1673ffffffffffffffffffffffffffffffffffffffff166370a08231336040518263ffffffff1660e01b815260040161049c919061181c565b602060405180830381865afa1580156104b9573d6000803e3d6000fd5b505050506040513d601f19601f820116820180604052508101906104dd919061184c565b101561051e576040517f08c379a0000000000000000000000000000000000000000000000000000000008152600401610515906118d6565b60405180910390fd5b81610527611564565b61053191906117b3565b6003541015610575576040517f08c379a000000000000000000000000000000000000000000000000000000000815260040161056c90611942565b60405180910390fd5b60006001905060008054906101000a900473ffffffffffffffffffffffffffffffffffffffff1673ffffffffffffffffffffffffffffffffffffffff166323b872dd3330670de0b6b3a7640000876105cd91906117b3565b6040518463ffffffff1660e01b81526004016105eb93929190611962565b6020604051808303816000875af115801561060a573d6000803e3d6000fd5b505050506040513d601f19601f8201168201806040525081019061062e91906119c5565b503373ffffffffffffffffffffffffffffffffffffffff166108fc84610652611564565b61065c91906117b3565b9081150290604051600060405180830381858888f19350505050158015610687573d6000803e3d6000fd5b5082610691611564565b61069b91906117b3565b6003546106a891906119f2565b60038190555080915050919050565b6106bf610e68565b600260003373ffffffffffffffffffffffffffffffffffffffff1673ffffffffffffffffffffffffffffffffffffffff1681526020019081526020016000206002018190555034600260003373ffffffffffffffffffffffffffffffffffffffff1673ffffffffffffffffffffffffffffffffffffffff168152602001908152602001600020600001546107539190611a26565b600260003373ffffffffffffffffffffffffffffffffffffffff1673ffffffffffffffffffffffffffffffffffffffff1681526020019081526020016000206000018190555042600260003373ffffffffffffffffffffffffffffffffffffffff1673ffffffffffffffffffffffffffffffffffffffff168152602001908152602001600020600101819055506001600260003373ffffffffffffffffffffffffffffffffffffffff1673ffffffffffffffffffffffffffffffffffffffff16815260200190815260200160002060030160006101000a81548160ff021916908315150217905550565b60011515600160003373ffffffffffffffffffffffffffffffffffffffff1673ffffffffffffffffffffffffffffffffffffffff16815260200190815260200160002060030160009054906101000a900460ff161515146108d3576040517f08c379a00000000000000000000000000000000000000000000000000000000081526004016108ca90611ac8565b60405180910390fd5b66b1a2bc2ec50000341461091c576040517f08c379a000000000000000000000000000000000000000000000000000000000815260040161091390611b5a565b60405180910390fd5b6000610926610cd4565b90503373ffffffffffffffffffffffffffffffffffffffff166108fc661c6bf526340000600160003373ffffffffffffffffffffffffffffffffffffffff1673ffffffffffffffffffffffffffffffffffffffff1681526020019081526020016000206000015461099791906119f2565b9081150290604051600060405180830381858888f193505050501580156109c2573d6000803e3d6000fd5b5066b1a2bc2ec50000600160003373ffffffffffffffffffffffffffffffffffffffff1673ffffffffffffffffffffffffffffffffffffffff1681526020019081526020016000206000018190555060008054906101000a900473ffffffffffffffffffffffffffffffffffffffff1673ffffffffffffffffffffffffffffffffffffffff166340c10f1933836040518363ffffffff1660e01b8152600401610a6c929190611b7a565b600060405180830381600087803b158015610a8657600080fd5b505af1158015610a9a573d6000803e3d6000fd5b505050506000600160003373ffffffffffffffffffffffffffffffffffffffff1673ffffffffffffffffffffffffffffffffffffffff168152602001908152602001600020600101819055506000600160003373ffffffffffffffffffffffffffffffffffffffff1673ffffffffffffffffffffffffffffffffffffffff16815260200190815260200160002060030160006101000a81548160ff02191690831515021790555050565b600066038d7ea4c6800082610b5991906117b3565b341015610b9b576040517f08c379a0000000000000000000000000000000000000000000000000000000008152600401610b9290611bef565b60405180910390fd5b60006001905066038d7ea4c6800083610bb491906117b3565b600354610bc19190611a26565b60038190555060008054906101000a900473ffffffffffffffffffffffffffffffffffffffff1673ffffffffffffffffffffffffffffffffffffffff166340c10f1933670de0b6b3a764000086610c1891906117b3565b6040518363ffffffff1660e01b8152600401610c35929190611b7a565b600060405180830381600087803b158015610c4f57600080fd5b505af1158015610c63573d6000803e3d6000fd5b50505050670de0b6b3a764000083610c7b91906117b3565b600454610c889190611a26565b60048190555080915050919050565b60016020528060005260406000206000915090508060000154908060010154908060020154908060030160009054906101000a900460ff16905084565b6000610cde610d3a565b600160003373ffffffffffffffffffffffffffffffffffffffff1673ffffffffffffffffffffffffffffffffffffffff16815260200190815260200160002060020154610d2b9190611a26565b905090565b6000600454905090565b6000600160003373ffffffffffffffffffffffffffffffffffffffff1673ffffffffffffffffffffffffffffffffffffffff16815260200190815260200160002060030160009054906101000a900460ff1615610e60576000600160003373ffffffffffffffffffffffffffffffffffffffff1673ffffffffffffffffffffffffffffffffffffffff1681526020019081526020016000206001015442610de191906119f2565b905060006301e33731600160003373ffffffffffffffffffffffffffffffffffffffff1673ffffffffffffffffffffffffffffffffffffffff168152602001908152602001600020600001546064610e3991906117b3565b610e439190611c3e565b905060008282610e5391906117b3565b9050809350505050610e65565b600090505b90565b6000610e72611053565b600260003373ffffffffffffffffffffffffffffffffffffffff1673ffffffffffffffffffffffffffffffffffffffff16815260200190815260200160002060020154610ebf9190611a26565b905090565b6000600354905090565b610ed6610cd4565b600160003373ffffffffffffffffffffffffffffffffffffffff1673ffffffffffffffffffffffffffffffffffffffff1681526020019081526020016000206002018190555034600160003373ffffffffffffffffffffffffffffffffffffffff1673ffffffffffffffffffffffffffffffffffffffff16815260200190815260200160002060000154610f6a9190611a26565b600160003373ffffffffffffffffffffffffffffffffffffffff1673ffffffffffffffffffffffffffffffffffffffff1681526020019081526020016000206000018190555042600160003373ffffffffffffffffffffffffffffffffffffffff1673ffffffffffffffffffffffffffffffffffffffff1681526020019081526020016000206001018190555060018060003373ffffffffffffffffffffffffffffffffffffffff1673ffffffffffffffffffffffffffffffffffffffff16815260200190815260200160002060030160006101000a81548160ff021916908315150217905550565b6000600260003373ffffffffffffffffffffffffffffffffffffffff1673ffffffffffffffffffffffffffffffffffffffff16815260200190815260200160002060030160009054906101000a900460ff1615611179576000600260003373ffffffffffffffffffffffffffffffffffffffff1673ffffffffffffffffffffffffffffffffffffffff16815260200190815260200160002060010154426110fa91906119f2565b905060006301e33731600260003373ffffffffffffffffffffffffffffffffffffffff1673ffffffffffffffffffffffffffffffffffffffff1681526020019081526020016000206000015460c861115291906117b3565b61115c9190611c3e565b90506000828261116c91906117b3565b905080935050505061117e565b600090505b90565b60011515600260003373ffffffffffffffffffffffffffffffffffffffff1673ffffffffffffffffffffffffffffffffffffffff16815260200190815260200160002060030160009054906101000a900460ff16151514611217576040517f08c379a000000000000000000000000000000000000000000000000000000000815260040161120e90611ac8565b60405180910390fd5b66b1a2bc2ec500003414611260576040517f08c379a000000000000000000000000000000000000000000000000000000000815260040161125790611b5a565b60405180910390fd5b610258600260003373ffffffffffffffffffffffffffffffffffffffff1673ffffffffffffffffffffffffffffffffffffffff16815260200190815260200160002060010154426112b191906119f2565b10156112f2576040517f08c379a00000000000000000000000000000000000000000000000000000000081526004016112e990611ce1565b60405180910390fd5b60006112fc610cd4565b90503373ffffffffffffffffffffffffffffffffffffffff166108fc661c6bf526340000600260003373ffffffffffffffffffffffffffffffffffffffff1673ffffffffffffffffffffffffffffffffffffffff1681526020019081526020016000206000015461136d91906119f2565b9081150290604051600060405180830381858888f19350505050158015611398573d6000803e3d6000fd5b5066b1a2bc2ec50000600260003373ffffffffffffffffffffffffffffffffffffffff1673ffffffffffffffffffffffffffffffffffffffff1681526020019081526020016000206000018190555060008054906101000a900473ffffffffffffffffffffffffffffffffffffffff1673ffffffffffffffffffffffffffffffffffffffff166340c10f1933836040518363ffffffff1660e01b8152600401611442929190611b7a565b600060405180830381600087803b15801561145c57600080fd5b505af1158015611470573d6000803e3d6000fd5b505050506000600260003373ffffffffffffffffffffffffffffffffffffffff1673ffffffffffffffffffffffffffffffffffffffff168152602001908152602001600020600101819055506000600260003373ffffffffffffffffffffffffffffffffffffffff1673ffffffffffffffffffffffffffffffffffffffff16815260200190815260200160002060030160006101000a81548160ff02191690831515021790555050565b6000600160003373ffffffffffffffffffffffffffffffffffffffff1673ffffffffffffffffffffffffffffffffffffffff16815260200190815260200160002060000154905090565b6000806004541415611579576000905061159f565b600454670de0b6b3a764000060035461159291906117b3565b61159c9190611c3e565b90505b90565b6000600260003373ffffffffffffffffffffffffffffffffffffffff1673ffffffffffffffffffffffffffffffffffffffff16815260200190815260200160002060000154905090565b600080fd5b600073ffffffffffffffffffffffffffffffffffffffff82169050919050565b600061161c826115f1565b9050919050565b61162c81611611565b811461163757600080fd5b50565b60008135905061164981611623565b92915050565b600060208284031215611665576116646115ec565b5b60006116738482850161163a565b91505092915050565b6000819050919050565b61168f8161167c565b82525050565b60008115159050919050565b6116aa81611695565b82525050565b60006080820190506116c56000830187611686565b6116d26020830186611686565b6116df6040830185611686565b6116ec60608301846116a1565b95945050505050565b600060208201905061170a6000830184611686565b92915050565b6117198161167c565b811461172457600080fd5b50565b60008135905061173681611710565b92915050565b600060208284031215611752576117516115ec565b5b600061176084828501611727565b91505092915050565b600060208201905061177e60008301846116a1565b92915050565b7f4e487b7100000000000000000000000000000000000000000000000000000000600052601160045260246000fd5b60006117be8261167c565b91506117c98361167c565b9250817fffffffffffffffffffffffffffffffffffffffffffffffffffffffffffffffff048311821515161561180257611801611784565b5b828202905092915050565b61181681611611565b82525050565b6000602082019050611831600083018461180d565b92915050565b60008151905061184681611710565b92915050565b600060208284031215611862576118616115ec565b5b600061187084828501611837565b91505092915050565b600082825260208201905092915050565b7f496e73756666696369656e7420616d6f756e74206f6620424d49570000000000600082015250565b60006118c0601b83611879565b91506118cb8261188a565b602082019050919050565b600060208201905081810360008301526118ef816118b3565b9050919050565b7f5468652062616e6b20646f65736e2774206861766520656e6f75676820424e42600082015250565b600061192c602083611879565b9150611937826118f6565b602082019050919050565b6000602082019050818103600083015261195b8161191f565b9050919050565b6000606082019050611977600083018661180d565b611984602083018561180d565b6119916040830184611686565b949350505050565b6119a281611695565b81146119ad57600080fd5b50565b6000815190506119bf81611999565b92915050565b6000602082840312156119db576119da6115ec565b5b60006119e9848285016119b0565b91505092915050565b60006119fd8261167c565b9150611a088361167c565b925082821015611a1b57611a1a611784565b5b828203905092915050565b6000611a318261167c565b9150611a3c8361167c565b9250827fffffffffffffffffffffffffffffffffffffffffffffffffffffffffffffffff03821115611a7157611a70611784565b5b828201905092915050565b7f4572726f722c206e6f2070726576696f7573206465706f736974000000000000600082015250565b6000611ab2601a83611879565b9150611abd82611a7c565b602082019050919050565b60006020820190508181036000830152611ae181611aa5565b9050919050565b7f4d7573742070726f7669646520302e303520424e4220746f207769746864726160008201527f7700000000000000000000000000000000000000000000000000000000000000602082015250565b6000611b44602183611879565b9150611b4f82611ae8565b604082019050919050565b60006020820190508181036000830152611b7381611b37565b9050919050565b6000604082019050611b8f600083018561180d565b611b9c6020830184611686565b9392505050565b7f496e737566696369656e7420616d6f756e74206f6620424e4200000000000000600082015250565b6000611bd9601983611879565b9150611be482611ba3565b602082019050919050565b60006020820190508181036000830152611c0881611bcc565b9050919050565b7f4e487b7100000000000000000000000000000000000000000000000000000000600052601260045260246000fd5b6000611c498261167c565b9150611c548361167c565b925082611c6457611c63611c0f565b5b828204905092915050565b7f4d7573742077616974206174206c65617374203130206d696e7574657320626560008201527f666f726520776974686472617700000000000000000000000000000000000000602082015250565b6000611ccb602d83611879565b9150611cd682611c6f565b604082019050919050565b60006020820190508181036000830152611cfa81611cbe565b905091905056fea26469706673582212208a1618ce522db112bcf8a4559f9444c89f1eeb0fdfa88d56f59d41a49115cc4764736f6c634300080a0033",
  "immutableReferences": {},
  "source": "pragma solidity ^0.8.10;\r\nimport \"./Token.sol\";\r\n\r\ncontract Bank {\r\n    struct RegularDeposit {\r\n        uint clientsBalanceBNB;\r\n        uint depositTimeStamp;\r\n        uint interest;\r\n        bool isDeposited;\r\n    }\r\n\r\n    struct DoubleInterestDeposit {\r\n        uint clientsBalanceBNB;\r\n        uint depositTimeStamp;\r\n        uint interest;\r\n        bool isDeposited;\r\n    }\r\n\r\n    //assign Token contract to variable\r\n    Token private token;\r\n    // hash address - uint\r\n    mapping(address => RegularDeposit) public regularDeposit;\r\n    mapping(address => DoubleInterestDeposit) public doubleInterestDeposit;\r\n    uint bnbFromSales = 0;\r\n    uint totalBMIW = 0;\r\n\r\n    //pass as constructor argument deployed Token contract\r\n    constructor(Token _token) public {\r\n        //assign token deployed contract to variable\r\n        token = _token;\r\n    }\r\n\r\n    function deposit() public payable {\r\n        regularDeposit[msg.sender].interest = getClientBalanceBMIW(); \r\n        regularDeposit[msg.sender].clientsBalanceBNB =\r\n            regularDeposit[msg.sender].clientsBalanceBNB +\r\n            msg.value;\r\n        regularDeposit[msg.sender].depositTimeStamp = block.timestamp;\r\n        regularDeposit[msg.sender].isDeposited = true;\r\n    }\r\n\r\n    function depositDoubleInteresr() public payable {\r\n        doubleInterestDeposit[msg.sender].interest = getClientBalanceBMIWDoubleInterest();\r\n        doubleInterestDeposit[msg.sender].clientsBalanceBNB =\r\n            doubleInterestDeposit[msg.sender].clientsBalanceBNB +\r\n            msg.value;\r\n        doubleInterestDeposit[msg.sender].depositTimeStamp = block.timestamp;\r\n        doubleInterestDeposit[msg.sender].isDeposited = true;\r\n    }\r\n\r\n    function withdraw() public payable {\r\n        require(\r\n            regularDeposit[msg.sender].isDeposited == true,\r\n            \"Error, no previous deposit\"\r\n        );\r\n        require(msg.value == 0.05 ether, \"Must provide 0.05 BNB to withdraw\");\r\n\r\n        uint interest = getClientBalanceBMIW();\r\n\r\n        // return the BNB to original wallet\r\n        payable(msg.sender).transfer(\r\n            regularDeposit[msg.sender].clientsBalanceBNB - 0.008 ether\r\n        );\r\n        regularDeposit[msg.sender].clientsBalanceBNB = 0.05 ether;\r\n\r\n        // Crear el token y lo envia a la addres del msg.sender\r\n        token.mint(msg.sender, interest);\r\n        // reiniciar reposito\r\n        regularDeposit[msg.sender].depositTimeStamp = 0;\r\n        regularDeposit[msg.sender].isDeposited = false;\r\n    }\r\n\r\n    function withdrawDoubleInterest() public payable {\r\n        require(\r\n            doubleInterestDeposit[msg.sender].isDeposited == true,\r\n            \"Error, no previous deposit\"\r\n        );\r\n        require(msg.value == 0.05 ether, \"Must provide 0.05 BNB to withdraw\");\r\n        require(\r\n            (block.timestamp -\r\n                doubleInterestDeposit[msg.sender].depositTimeStamp) >= 600,\r\n            \"Must wait at least 10 minutes before withdraw\"\r\n        );\r\n\r\n        uint interest = getClientBalanceBMIW();\r\n\r\n        // return the BNB to original wallet\r\n        payable(msg.sender).transfer(\r\n            doubleInterestDeposit[msg.sender].clientsBalanceBNB - 0.008 ether\r\n        );\r\n        doubleInterestDeposit[msg.sender].clientsBalanceBNB = 0.05 ether;\r\n\r\n        // Crear el token y lo envia a la addres del msg.sender\r\n        token.mint(msg.sender, interest);\r\n        // reiniciar reposito\r\n        doubleInterestDeposit[msg.sender].depositTimeStamp = 0;\r\n        doubleInterestDeposit[msg.sender].isDeposited = false;\r\n    }\r\n\r\n    function getClientBalanceBNB() public view returns (uint) {\r\n        return regularDeposit[msg.sender].clientsBalanceBNB;\r\n    }\r\n\r\n    function getClientBalanceBNBDoubleInterest() public view returns (uint) {\r\n        return doubleInterestDeposit[msg.sender].clientsBalanceBNB;\r\n    }\r\n\r\n    function getClientBalanceBMIW() public view returns (uint) {\r\n        return regularDeposit[msg.sender].interest + calculateBMIW();\r\n    }\r\n\r\n    function getClientBalanceBMIWDoubleInterest() public view returns (uint) {\r\n        return doubleInterestDeposit[msg.sender].interest + calculateBMIWDoubleInterest();\r\n    }\r\n\r\n    function calculateBMIW() public view returns (uint) {\r\n        if (regularDeposit[msg.sender].isDeposited) {\r\n            uint depositTotalTime = block.timestamp -\r\n                regularDeposit[msg.sender].depositTimeStamp;\r\n            uint interestPerSecond = (100 *\r\n                regularDeposit[msg.sender].clientsBalanceBNB) / 31668017;\r\n            uint interest = interestPerSecond * depositTotalTime;\r\n\r\n            return interest;\r\n        }\r\n        return 0;\r\n    }\r\n\r\n    function calculateBMIWDoubleInterest() public view returns (uint) {\r\n        if (doubleInterestDeposit[msg.sender].isDeposited) {\r\n            uint depositTotalTime = block.timestamp -\r\n                doubleInterestDeposit[msg.sender].depositTimeStamp;\r\n            uint interestPerSecond = (200 *\r\n                doubleInterestDeposit[msg.sender].clientsBalanceBNB) / 31668017;\r\n            uint interest = interestPerSecond * depositTotalTime;\r\n\r\n            return interest;\r\n        }\r\n        return 0;\r\n    }\r\n\r\n    function buyBMIW(uint amountOfBMIW) payable public returns (bool) {\r\n\r\n        require(msg.value >= amountOfBMIW*0.001 ether, \"Insuficient amount of BNB\");\r\n\r\n        bool sucess = true;\r\n\r\n        bnbFromSales = bnbFromSales + (amountOfBMIW*0.001 ether);\r\n        token.mint(msg.sender, amountOfBMIW * 1 ether);\r\n        totalBMIW = totalBMIW + (amountOfBMIW * 1 ether);\r\n\r\n        return sucess;\r\n    }\r\n\r\n    function getBalance() public view returns (uint256) {\r\n        return payable(address(this)).balance;\r\n    }\r\n\r\n    function getBNBFromSales() public view returns (uint256) {\r\n        return bnbFromSales;\r\n    }\r\n\r\n    function getBMIWPrice() public view returns (uint256) {\r\n        if (totalBMIW == 0) {\r\n            return 0;\r\n        }\r\n        return (bnbFromSales * 1e18)/totalBMIW;\r\n    }\r\n\r\n    function getTotalBMIW() public view returns (uint256) {\r\n        return totalBMIW;\r\n    }\r\n\r\n    function sellBMIW(uint amountOfBMIW) public returns (bool) {\r\n        require(token.balanceOf(msg.sender) >= amountOfBMIW * 1 ether, \"Insufficient amount of BMIW\");\r\n        require(bnbFromSales >= getBMIWPrice()*amountOfBMIW, \"The bank doesn't have enough BNB\");\r\n\r\n        bool sucess = true;\r\n\r\n        token.transferFrom( msg.sender, address(this), amountOfBMIW * 1 ether); \r\n        \r\n        payable(msg.sender).transfer(\r\n            (getBMIWPrice()*amountOfBMIW)\r\n        );\r\n\r\n        bnbFromSales = bnbFromSales - getBMIWPrice()*amountOfBMIW;\r\n\r\n        return sucess;\r\n    }\r\n}\r\n",
  "sourcePath": "D:\\Master\\Segundo\\NEW\\Blockchain\\Banco\\bnb1\\contracts\\Bank.sol",
  "compiler": {
    "name": "solc",
    "version": "0.8.10+commit.fc410830.Emscripten.clang"
  },
  "schemaVersion": "3.4.16",
  "updatedAt": "2023-12-27T09:56:51.573Z",
  "networkType": "ethereum",
  "devdoc": {
    "kind": "dev",
    "methods": {},
    "version": 1
  },
  "userdoc": {
    "kind": "user",
    "methods": {},
    "version": 1
  }
}